:100000000C9428030C9445030C9445030C9445036D
:100010000C9445030C9445030C9445030C94450340
:100020000C9445030C9445030C948D290C94492998
:100030000C948A2A0C9445030C9445030C944503B4
:100040000C9445030C9445030C9445030C94450310
:100050000C9445030C94662A0C9445030C944503B8
:100060000C9445030C9445030C9445030C944503F0
:100070000C9445030C9445030C9445030C944503E0
:100080000C9445030C9445030C9445030C944503D0
:100090000C9445030C9445030C9445030C944503C0
:1000A0000C9445030C9445030C9445030501090287
:1000B000A10185020901A100050919012905150001
:1000C00025019505750181029501750381010501E1
:1000D000093009311581257F950275088106093897
:1000E0001581257F950175088106050C0A380215D2
:1000F00081257F950175088106C0C005010980A191
:1001000001850319012AB700150126B7009501756D
:10011000108100C0050C0901A101850419012AA064
:1001200002150126A002950175108100C00660FF2E
:100130000961A1010962150026FF0095207508815B
:10014000020963150026FF00952075089102C0057D
:10015000010906A101050719E029E7150025019508
:1001600008750181029501750881010507190029AB
:10017000FF150026FF009506750881000508190186
:100180002905950575019102950175039101C0003E
:10019000047F3F1F643214643214783C1E1E140A1C
:1001A00005FD377A585A000004E6D6B4460200210D
:1001B0000116000000742FE5A3E0017900B85D008E
:1001C0003D8889C65436C3174FE4E4565FA49BF0BC
:1001D000DDF4262AF26D272E9EF04B8D879727227D
:1001E00044B70D07D41A3F36D833E38CB699A6230B
:1001F000E9367E954B9C6BEB0FF431BBAB16B8D850
:10020000134919E7CBEFE0052ECA117D5757BFE41C
:100210004C197D57F08CF52DB152B42F69FC7AB092
:100220003608D58DA263D952A1E4C0A2AE59926618
:10023000EA1D179AEC9DE07AFC5220D93E6C8A9711
:10024000AE8B1A102C6CF479E2BB32F34962EF5397
:10025000491C172F85377F01E6135669D49CA7BA2E
:10026000DF520C5BF1354CB9A1ECE4354A176E193D
:100270006950C20A33114CF900E67725A68A48F383
:10028000130001D401FA020000F981C59DB1C467D1
:10029000FB020000000004595A00010101010101A4
:1002A000010101020202020202020202030303032D
:1002B00003030303040404040404040505050505FD
:1002C00006060606060707070707080808080909BB
:1002D00009090A0A0A0B0B0B0C0C0C0D0D0D0E0E66
:1002E0000E0F0F0F101011111112121313141415F9
:1002F0001516161717181819191A1A1B1B1C1D1D6D
:100300001E1E1F20202122222324242526262728C2
:1003100029292A2B2C2D2D2E2F30313232333435F2
:10032000363738393A3B3C3D3E3F404142434445F5
:10033000464748494A4C4D4E4F50515354555658D4
:10034000595A5B5D5E5F616264656668696B6C6D7E
:100350006F7072737577787A7B7D7E8082838587F4
:10036000888A8C8E8F91939596989A9C9EA0A2A332
:10037000A5A7A9ABADAFB1B3B5B7BABCBEC0C2C437
:10038000C6C9CBCDCFD1D4D6D8DBDDDFE2E4E7E9F7
:10039000EBEEF0F3F5F8FAFDFFFFAA7F5540000100
:1003A00002030405060708090A0B0C0D0E0F222391
:1003B000252628292A2C2D2F3032333536383A3B42
:1003C0003D3E4042434547494A4C4E505153555794
:1003D000595A5C5E6062646668696B6D6F717375B3
:1003E00077797B7D7F81838587898A8C8E909294B3
:1003F00096989A9C9E9FA1A3A5A7A8AAACAEAFB1C0
:10040000B3B4B6B8B9BBBCBEBFC1C2C3C5C6C7C909
:10041000CACBCCCDCED0D1D2D2D3D4D5D6D7D7D8C3
:10042000D9D9DADADBDBDBDCDCDCDCDCDDDDDDDD15
:10043000DCDCDCDCDCDBDBDBDADAD9D9D8D7D7D61D
:10044000D5D4D3D2D2D1D0CECDCCCBCAC9C7C6C5D4
:10045000C3C2C1BFBEBCBBB9B8B6B4B3B1AFAEAC1A
:10046000AAA8A7A5A3A19F9E9C9A98969492908EC5
:100470008C8A89878583817F7D7B79777573716F9E
:100480006D6B6968666462605E5C5A59575553517A
:10049000504E4C4A4947454342403E3D3B3A383630
:1004A000353332302F2D2C2A292826252322A90046
:1004B000AA00A900AA0053005400550056005F008E
:1004C000600061002B005C005D005E005700590079
:1004D0005A005B004C00620062006300580000009C
:1004E000000000000000000000000000000000000C
:1004F00000000000000000000000000000000000FC
:1005000000007E0F00D4FFFFFFC70000007800004E
:100510000000000000002A2B28000000000000005E
:1005200000000000000000000029000000002C1E58
:100530003420212224342627252E362D3738271E15
:100540001F202122232425263333362E37381F043B
:1005500005060708090A0B0C0D0E0F1011121314D3
:1005600015161718191A1B1C1D2F3130232D350491
:1005700005060708090A0B0C0D0E0F1011121314B3
:1005800015161718191A1B1C1D2F3130354C09026E
:100590005B00030100A0FA0904000001030101004F
:1005A0000921110100012240000705810308000113
:1005B00009040100020300000009211101000122C9
:1005C0002200070582032000010705030320000124
:1005D00009040200010300000009211101000122A9
:1005E00081000705840320000112010002000000C1
:1005F00008666667660200010203011C0376006953
:100600000061006C003A006600360034006300327E
:10061000006200330063000000200350003200300D
:10062000007600370020004D006100630072006F0B
:1006300000200050006100640000000E03500061C3
:1006400000620069006C00650000000403090400FA
:1006500011241FBECFEFDAE0DEBFCDBF11E0A0E076
:10066000B1E0E0E9F9E602C005900D92A83AB107C1
:10067000D9F724E0A8EAB1E001C01D92AC37B20777
:10068000E1F70E94B12A0C94A2340C940000E8ED2A
:10069000F0E080818E7F80831092E2001092DA0079
:1006A0001092E100A0EEB0E08C9181608C9380818B
:1006B0008F77808319BCA7EDB0E08C918E7F8C93EF
:1006C00080818F7E80831092640408952091E400DD
:1006D0003091E50095E6A9012091EC00822F817010
:1006E00020FF06C08091E80080FF06C080E00895EA
:1006F0002091E80022FD1AC080917104882389F0BE
:10070000853089F08091EB0085FD0FC02091E400D9
:100710003091E50042175307F9F29150E1F684E079
:10072000089582E0089583E0089581E00895EF92AE
:10073000FF920F931F93CF937C018B010E9466035E
:10074000C82F811117C08091E80085FD0BC08091F2
:10075000E8008E778093E8000E946603882399F36F
:10076000C82F08C0F70181917F018093F1000150EB
:10077000110949F78C2FCF911F910F91FF90EF90A6
:1007800008958091730487FF13C08091E80082FF71
:1007900006C08091E8008B778093E80004C08091C8
:1007A00071048111F2CF0895809171048823D9F3E7
:1007B0008091E80080FFF8CF8091E8008E77ECCF41
:1007C000982F9093E900242F762F50E0891731F06D
:1007D0007091EC002091ED005091F00021FD07C0D8
:1007E0009F5F973071F78093E90081E00895309121
:1007F000EB003E7F3093EB003091ED003D7F309376
:10080000ED003091EB0031603093EB007093EC0021
:100810002093ED005093F0002091EE0027FDE0CFF3
:1008200080E00895B0E0A0E0E8E1F4E00C94EB3360
:10083000C8EDD0E088818F7E8883E7EDF0E080818D
:100840008160808384E082BF81E08093640488813A
:100850008E7F888302EE10E0F80110821092DA0099
:1008600081EEC82ED12CF601108288818F77888383
:1008700088818068888388818F7D888319BC1092E5
:100880007104109272041092700410926F0490EE32
:10089000E92EF12CF70180818B7F80838881816034
:1008A000888342E060E080E00E94E003F6018081FE
:1008B0008E7F8083F8018081816080838081886061
:1008C0008083F70180818E7F808388818061888327
:1008D000CDB7DEB7E8E00C940734FC0180917904D1
:1008E00090917A0486179707A0F06115710529F495
:1008F0009091E8009E779093E80090E06115710573
:1009000051F4911108C08091E80082FF34C080E06A
:100910000895BC01F2CF809171048823C1F1853024
:10092000C1F18091E80083FD30C08091E80082FD34
:10093000EACF8091E80080FFE1CF8091F300209121
:10094000F200382F6115710519F02830310558F083
:1009500091E02830310509F090E02091E8002E77F1
:100960002093E800CBCF81918093F1006150710911
:100970002F5F3F4FE7CF80917104882341F085308E
:1009800041F08091E80083FFBECF81E0089582E0CE
:10099000089583E00895089580916604089587E797
:1009A00097E7909301088093000888E19AE00FB6DA
:1009B000F894A895809360000FBE90936000FFCFDD
:1009C0009C014FB7F89480915D0490915E04A091D2
:1009D0005F04B09160044FBF821B930B08952FB743
:1009E000F89460915D0470915E0480915F04909131
:1009F00060042FBF08952FB7F89480915D04909103
:100A00005E04A0915F04B09160042FBF08959C0123
:100A1000FC0132969FEF80E04191461751F09F3FD5
:100A200019F4411101C0982F8F5F8630A9F79F3FBD
:100A300009F40895290F311D97FD3A95F901628354
:100A4000089520915A0430915B042817390771F0FA
:100A500090935B0480935A04E0915804F0915904F8
:100A6000309721F00084F185E02D099508952091BB
:100A70005604309157042817390771F090935704A2
:100A800080935604E0915804F0915904309721F076
:100A90000680F781E02D09950895E0915804F091C2
:100AA0005904309729F00190F081E02D09950895BF
:100AB00080E00895452B39F0682381E06F3F09F00D
:100AC00080E08170089581E0FCCFDC0160914B04EF
:100AD00080914C04962F891301C00895292F30E08E
:100AE000F901EE0FFF1FED5BFB4F408151814A176B
:100AF0005B07A1F487E08A9FA0018B9F500D112412
:100B000043505C4F81E0FA0184839613E6CF2F5F58
:100B10003F4F2370332720934B0408952F5F3F4F9F
:100B2000922F9370D8CF10929A0310929903EDEF01
:100B3000F3E08581811102C014821682379684E029
:100B4000E334F807B1F70895E1EAF2E090E080E0DD
:100B500064EF77E24BE158E225E737E2778366837B
:100B600051874087338722879587848701963E96F1
:100B70008A30910599F7089581152CE5920741F483
:100B800020911A0130911B01232B11F490E080E099
:100B90000895FA01811101C0FB0109950895089596
:100BA00080918802982F9E7F61F48170826080938B
:100BB000880280918B02813518F080E580938B024A
:100BC00008958A34B0F381708864F1CFAF92BF92F8
:100BD000DF92EF92FF920F931F93CF93DF93082F33
:100BE000162FE901E42FF0E0E756FD4F611110C028
:100BF000E4915E2F4E2F4983E8835A83DF91CF9192
:100C00001F910F91FF90EF90DF90BF90AF900895EC
:100C1000E62EF12C4491D42EE42FF0E026E0829FC2
:100C2000C00111242FEF30E0B9010E945933802F09
:100C300090E0880F991F55E5569FD001579FB00D42
:100C400011248A1B9B0B982F990F890F5901AE18FD
:100C5000BF08AE9ED001AF9EB00DBE9EB00D112458
:100C60005B2F189F80011124012F11275901A01A11
:100C7000B10AAE9E8001AF9E100DBE9E100D1124D4
:100C80005901A81AB108AE9CC001AF9C900DBE9C42
:100C9000900D1124892F9927281B390B2E9FC001F5
:100CA0002F9F900D3E9F900D1124E92F623071050A
:100CB000A1F050F46115710509F49DCF6130710503
:100CC00081F0EB2F512F97CF6430710569F080F0E0
:100CD0006630710509F48FCFF4CFE42F4B2F592FD5
:100CE0008ACFE42F412F87CFEB2F542F492F83CF6B
:100CF0004B2F5D2DE12F7FCF0E94FB049C01909133
:100D0000490280914A02982B21F0309346022093A9
:100D1000450290914B0280914C02982B21F0309328
:100D2000440220934302E0915804F0915904309713
:100D300049F082E0809347020480F581E02D87E44A
:100D400092E00995089590914902803F59F480916D
:100D50004A0287FF0DC010924A0291110BC01092F7
:100D6000410208C0813F81F480914A0218169CF329
:100D7000992381F080914B0290914C02892B09F0CC
:100D800064C0109240020895823F49F497FFF0CF6B
:100D90001092490280914A028111ECCFE0CF833F4B
:100DA00019F41916ACF3E4CF20914B02893F29F4D2
:100DB0001216F4F610924B02DBCF8A3F19F427FF8C
:100DC000D7CFF8CF20914C028B3F29F427FFD0CF0B
:100DD00010924C02CDCF8C3F19F41216CCF3C8CF31
:100DE000843F31F4809148028E7F80934802C0CFC7
:100DF000853F21F4809148028D7FF7CF863F21F413
:100E0000809148028B7FF1CF873F21F48091480287
:100E1000877FEBCF883F21F4809148028F7EE5CF1A
:100E20008D3F31F4809142028E7F80934202A0CFA9
:100E30008E3F21F4809142028D7FF7CF8F3F09F0E2
:100E400097CF809142028B7FF0CF0895809142022C
:100E500080FD16C081FD16C082FD16C08091400243
:100E60008823A1F0883280F428E0829FC0011124F9
:100E700068E270E00E946D33862F672B39F0089589
:100E800082E0089584E0089588E0089581E008955F
:100E90008091420280FD14C081FD14C082FD16C005
:100EA00080914102882381F08E3180F420E5829F79
:100EB000C00111246EE170E00E946D33862F089509
:100EC00084E1089588E2089588E0089580E5089512
:100ED000803F31F40E944807819580934A0208952B
:100EE000813F19F40E944807F8CF823F31F40E94F5
:100EF00048078195809349020895833F19F40E9421
:100F00004807F8CF893F29F40E94260780934B02B7
:100F100008958A3F21F40E9426078195F7CF8B3FE1
:100F200031F40E942607819580934C0208958C3FEE
:100F300019F40E942607F8CF843F31F480914802CB
:100F40008160809348020895853F21F48091480292
:100F50008260F7CF863F21F4809148028460F1CF10
:100F6000873F21F4809148028860EBCF883F21F4CD
:100F7000809148028061E5CF8D3F31F4809142023B
:100F800081608093420208958E3F21F48091420255
:100F90008260F7CF8F3FB9F7809142028460F1CF32
:100FA00080E00895F894E82FE295EF70F0E031A129
:100FB000282F2F7081E090E001C0880F2A95EAF772
:100FC000982F9095932391A392A1892B82A3789433
:100FD00008959091240292FF06C0282F287128308E
:100FE000F9F4877F846093FF06C0282F2871283189
:100FF000F1F4877E84612091250220FF06C0382FFE
:1010000038713830D9F4877F816021FF06C0282FDE
:1010100028712831D1F4877E816194FD877E0895FF
:10102000282F24712430F9F68B7F8860DCCF282F9D
:101030002471243101F78B7E8861DDCF382F317127
:10104000313019F78E7F8860E0CF282F2171213150
:1010500021F78E7E8861E1CFCF93DF93EC01823858
:101060009105B1F108F040C08133910509F49DC0AC
:1010700048F58932910509F48DC08A9709F49CC01E
:10108000C11521E5D20708F0C3C0C11530E5D3076B
:1010900008F01EC1C83ED10508F0A3C0C13ED1056D
:1010A00088F5C83AD10508F08EC0C53AD10508F0D8
:1010B00007C1C130D10531F1209721F1C430D105EC
:1010C00008F545C08533910509F45FC0C997C1F69D
:1010D00080912402837009F044C18091250283FF2E
:1010E00011C0C9E2D0E00EC0833E910599F170F4C1
:1010F000803E910501F1823E910511F68091240216
:1011000082FD21C0CE01DF91CF910895863E9105E9
:1011100061F1873E910571F1843E910509F0B0CFF0
:101120008091250281FFEECF80912402C7EED0E0AE
:1011300084FD0DC0E7CF8091240280FD33C09091E3
:10114000250290FFDFCFC3EED0E084FFDBCFD0E0FD
:10115000C0E0D8CF8091240282FD00C19091250289
:1011600090FDFFC084FFCECFF2CF8091240283FD9B
:10117000DDCFC8CF8091240283FDF6C09091250277
:1011800091FFF0CFC4EED0E0BDCF8091240285FF67
:10119000B9CFA7CF8091240285FDE9C080912502B7
:1011A00083FFB0CFC9E3D0E0ADCF8091240286FFAA
:1011B000A9CFCAE2D0E0A6CF8091240286FFA2CFB9
:1011C000C1E3D0E09FCFCF3BD10508F6C85AD0E0AD
:1011D000CC0FDD1FC75DDE4F0990D881C02DD464D0
:1011E00091CFC11540E2D40758F4C11581E0D8076A
:1011F00008F088CFC03FD10508F4A9CFD06582CFD1
:10120000C11520E4D20708F4A2CFDF70D06A7ACFEC
:10121000C11535E5D30718F5C11544E5D40708F025
:1012200085C0C11583E5D80708F06CC0C11522E55B
:10123000D20708F462C0CE018370992721E030E024
:1012400002C0220F331F8A95E2F7C695C69580E249
:10125000C89FE0011124C22BD32BDC6853CFC115EA
:1012600039E5D307A8F4C11548E5D40708F063C0F1
:10127000C11586E5D80708F06ACF8C2F0E94E907D0
:10128000C82FD0E0DC2FCC27CC27DF71D0623ACF3B
:10129000C1152AE5D20708F453C0CE019056811536
:1012A000904208F054CF8D2F8F710E94E90790E093
:1012B000982F882788279F719C012C2BE901E6CF66
:1012C000C55AD0E0CA5DDE4FC881D0E0D0641ACFE5
:1012D0002C2F26952695237040E2249F90011124FF
:1012E0008C2F8370C1E0D0E002C0CC0FDD1F8A9547
:1012F000E2F7C22BD32BDD6805CFDC2FCC27C16FE3
:10130000D06A00CFCE018370992721E030E002C07F
:10131000220F331F8A95E2F7C695C69540E2C49F17
:10132000E0011124C22BD32BDA68ECCEDC2FCC27C2
:10133000C46FD06AE7CEDC2FCC27C06FD06AE2CE74
:101340008C2F8F700E94E90734E0D695C7953A95A7
:10135000E1F7CF709C2FEC01D069D4CEC2EED0E083
:10136000D1CEC0EED0E0CECEC6EED0E0CBCEC5E33F
:10137000D0E0C8CE80911A02882331F010921A0270
:1013800010921902109218020895809590915204BB
:101390009823909352040895809590915304982334
:1013A00090935304089510920F0210920E0210921F
:1013B0000D02089580910C029091CB01981301C009
:1013C00008958F5F8770FACFA82FA77023E09695B6
:1013D00087952A95E1F7FC01EE0FFF1FE80FF91F33
:1013E000E60FF71F50E040E080E0219130E00A2E48
:1013F00002C0369527950A94E2F721703327042E10
:1014000001C0220F0A94EAF7822B4F5F5F4F4330EF
:10141000510559F70895903FB9F0953070F4843034
:1014200098F444E0949F900111246AEB71E0820FDC
:10143000932F911D0E94E40908959C5F923020F43F
:1014400067EB71E090E0F6CF80E00895262F2770DB
:1014500091E001C0990F2A95EAF723E07695679508
:101460002A95E1F7FB01EE0FFF1FE60FF71FE40FD0
:10147000F51F50E040E0682F70E08191DF01119787
:101480009B01042E02C0369527950A94E2F721703D
:1014900021952827292328272C934F5F5F4F43301E
:1014A000510559F70895282F862F903F71F09530F8
:1014B00068F4243050F434E0939FB0011124620F9B
:1014C000711D4AEB51E00E94260A08959C5F9230FC
:1014D000E0F7622F70E047EB51E0F5CF982F92953F
:1014E0009F7011F0892F94E0282F2695269511F0F2
:1014F0009E5F822F869509F09F5F892F08959C013A
:101500003A9521153F4150F5FC01EE27F170BC01E1
:1015100066277270AC01442754709C0122273870F2
:1015200094FF0EC080E1EF2B09F480E0672B09F0F7
:101530008062452B09F08064232B89F08068089530
:1015400081E0EF2B09F480E0672B09F08260452BE6
:1015500009F08460232B19F08860089580E00895D5
:1015600080936104709363046093620480917104BA
:101570008430F9F48093E9008FEF9091E800815076
:1015800095FD06C095ED9A95F1F700008111F5CF14
:101590008091E80085FF0DC050E040E063E070E01E
:1015A00081E694E00E9497038091E8008E77809313
:1015B000E8000895BC0184E00E94B00A0895BC01CF
:1015C00083E00E94B00A08959C0184E08093E900C2
:1015D0009FEF8091E800915085FD06C085ED8A95CA
:1015E000F1F700009111F5CF8091E80085FF0CC064
:1015F00050E040E066E070E0C9010E9497038091EE
:10160000E8008E778093E8000895CF93DF93EC0194
:1016100081E08093E9008FEF9091E800815095FD83
:1016200006C095ED9A95F1F700008111F5CF8091F4
:10163000E80085FF14C050E040E068E070E0CE01B3
:101640000E9497038091E8008E778093E80088E0FD
:10165000FE01A7E6B4E001900D928A95E1F7DF91D3
:10166000CF910895AF92BF92CF92DF92EF921F93E6
:10167000CF93DF93CDB7DEB7E0970FB6F894DEBF18
:101680000FBECDBF8091880280FD0AC0E8E5F2E080
:10169000118210821282339682E0E838F807C1F78F
:1016A0007EE9A72E73E0B72EDE011196AE014F5CE6
:1016B0005F4F1A2F7B2FF5018491282F30E0C9014D
:1016C000880F991F820F931F885A9D4FFC01C0807D
:1016D000D180E280CD92DD92ED92FFEFAF1ABF0A8A
:1016E000A417B50741F7269A35B13F7B25B1206491
:1016F0006FB7F894812F972FFC017191CF01E8E02B
:1017000025B9000000C077FF35B9770F000000C091
:1017100000C000C035B900C0EA9591F7841795075D
:1017200059F76FBF8FE594E00197F1F700C0000013
:10173000E0960FB6F894DEBF0FBECDBFDF91CF911C
:101740001F91EF90DF90CF90BF90AF900895EF92F0
:10175000FF920F931F93CF93DF938C01C8E5D2E0E4
:10176000F12CE12CF801948160918A028091890228
:10177000F8E0EF16F10404F5992301F140918B0292
:10178000413508F040E59E010E94E6052FEFE21A80
:10179000F20A239680E1E816F10421F70E94320B49
:1017A000F801848190E00196817099278483CDB7F8
:1017B000DEB7E6E00C940934992301F39E0140E082
:1017C000E3CFB0E0A0E0E7EEFBE00C94E733EC0100
:1017D0004C81042F10E09801D8010E94B8339B017E
:1017E000AC010E94CE334B015C01E0E2F0E0E01B73
:1017F000F10BA5E5B0E0AC019B010E94CE336B017B
:101800007C019F01DF010E94B0339B01AC010E946B
:10181000D9339B01AC01280D391D4A1D5B1DC70141
:10182000B6010E948133F22E822F90E039E23F15FB
:10183000B0F143E0249F9001112435952795122F94
:10184000109598E5C92E92E0D92E00E085E5E82EA6
:10185000EF188E2D01FD8F2D412F113508F040E539
:10186000960160918A020E94E6050F5F53E0C50E63
:10187000D11C003171F70E94320B9C8181E09923C9
:1018800019F0903219F48FEF8093190180911901AA
:10189000890F8C83CDB7DEB7ECE00C94033425E5DB
:1018A00030E0A901481B590BCA019A01220F331FCE
:1018B000280F391F37FFC1CF2F5F3F4FBECF0F9388
:1018C0001F93CF93DF93C8E5D2E0FE01118210820F
:1018D0001282339682E0E838F807C1F710E000E0A2
:1018E00080915602082E000C990B08171907A4F1D5
:1018F00080911801082E000C990B8017910764F154
:1019000040918B02413508F040E59E0160918A02CA
:10191000809189020E94E6050F5F1F4F23960031D8
:101920001105F1F60E94320B809117019091560239
:10193000980F9093560220911801280F20931801B8
:10194000121614F49F301CF0819580931701DF91DB
:10195000CF911F910F910895198218821A82DCCFBE
:10196000B0E0A0E0E6EBFCE00C94EB33FC018281FC
:10197000DD24DA9480FD02C0DD24D394C8E5D2E0F2
:1019800010E000E0198218821A8294E0E92EF12C0E
:10199000C12C809155028C0D8131C4F18F70082EBD
:1019A000000C990B80179107A9F480918B028E9DF2
:1019B000A0018F9D500D112455954795559547953C
:1019C000413508F040E59E0160918A0280918902CC
:1019D0000E94E605CD0CF1E0EF1AF108D1F60F5F99
:1019E0001F4F23960031110569F60E94320B80913A
:1019F000550291E0D91210C081110CC08FE0809384
:101A00005502CDB7DEB7E8E00C94073487FFC7CFA7
:101A1000805FC5CF8150F3CF90E001968F709927FA
:101A2000EECFEF92FF921F93CF93DF93EC0188E507
:101A3000E82E82E0F82E10E040918B02413508F04C
:101A400040E58C81970160918A02810F0E94E60532
:101A5000115F83E0E80EF11C103F71F70E94320B1A
:101A60009A818C8190FF08C08F5F8C83DF91CF912A
:101A70001F91FF90EF9008958150F7CF90918802C9
:101A800090FF0CC0E8E5F2E08183608342833396E7
:101A900092E0E838F907C1F70E94320B0895A3E0FD
:101AA000B0E0E5E5FDE00C94EF338C018091570246
:101AB00081110AC09E012F5F3F4F40E56FEF0E94EA
:101AC000E6058A8180935702F8016481613069F0EC
:101AD0008091570240E0662361F040E0623011F4EB
:101AE0004091570280E060E004C06091570240E0FE
:101AF00080E00E943E0DF801848190E0019663E051
:101B000070E00E946D3384832396E4E00C940B34E0
:101B1000A3E0B0E0EEE8FDE00C94F1339091880290
:101B200090FF0DC0413508F040E59E012F5F3F4F0B
:101B30000E94E6054B8169818A810E943E0D2396B1
:101B4000E2E00C940D34CF93DF93EC01E8E8F2E08F
:101B5000438162818C810E94880D8C818F5F8C8390
:101B6000DF91CF910895CF93DF93EC01EC81F0E00A
:101B7000E255FC4F4491E8E8F2E0628181810E94E5
:101B8000880D8C818F5F8C83DF91CF910895CF93E7
:101B9000C82F0E946E0A8330D1F030F4813059F0A2
:101BA000823069F040E005C0843049F044EB853074
:101BB000C9F760E002C040E068E784EB03C040E0A2
:101BC00064EB80E00E943E0D8C2FCF91089544EB92
:101BD000F7CF609195038CE090E00E946634089501
:101BE000CF93DF93CFE0D2E060E0CE010E94663475
:101BF0002196C11584E0D807B9F7DF91CF910895F8
:101C00000F931F93CF93DF93142F022F863020F56D
:101C1000623010F598E0899FE001112484E0689F0C
:101C2000B0011124C60FD71FC95EDE4F82E090E0DD
:101C3000442311F090E080E0632F8C0F9D1F0E94E1
:101C4000663483E090E0112311F081E090E0602F92
:101C50008C0F9D1F0E946634DF91CF911F910F91D1
:101C600008951F93CF93DF93122F8630E0F46530F1
:101C7000D0F44430C0F498E0699FE001112450E0B2
:101C8000440F551FC40FD51F98E2899FC00DD11D69
:101C90001124632FCE0187960E946634612FCE01F6
:101CA00088960E946634DF91CF911F910895CF935B
:101CB000C82F6FEF81116EEC83E290E00E946634D2
:101CC0006FEFC11164E284E290E00E9466346FEF2E
:101CD000C1116FE185E290E00E946634CF910895D2
:101CE000A4E1B0E0E6E7FEE00C94E133A0901A0135
:101CF000B0901B0181E090E090931B0180931A014A
:101D000010E000E09EEA492E94E0592E20EB622E6E
:101D100024E0722E34EB832E34E0932E86EBE82EF3
:101D200084E0F82E312C19C001151105C9F4F60113
:101D300025913491422D632D80E00E94310E82E086
:101D4000C80ED11C2394E4E02E12EECF3394F8E0B9
:101D5000EF0EF11C85E0381649F06701212CE4CF25
:101D600021E030E0422D632D802FE7CF01151105D2
:101D700009F45AC021E030E041E060E0802F0E9489
:101D8000000E21E030E040E060E0802F0E94000E75
:101D900021E030E041E061E0802F0E94000E21E070
:101DA00030E040E061E0802F0E94000E0F5F1F4F87
:101DB0000630110509F0B2CF1A8219821C821B82EB
:101DC0001E821D8218861F8288EC90E09A87898780
:101DD00007E411E04AE050E0B801CE0101960E940C
:101DE0008A34065F1F4F0B3AE1E01E0799F77E0128
:101DF000FBE0EF0EF11C8AE0F70111928A95E9F7FA
:101E00004AE050E0B801C7010E948A34065F1F4FC4
:101E10000F30F2E01F07A1F7B0921B01A0921A0148
:101E20006496E2E10C94FD33F2012591349141E096
:101E300060E080E00E94000EF3012591349140E0C3
:101E400060E080E00E94000EE2EBF4E02591349126
:101E500041E061E080E00E94000EF40125913491A0
:101E600040E061E080E0A0CF80E00E94570E60E09B
:101E700086E290E00E9466340E94700E0E94F00D8F
:101E800081E00E94570E08959B018A3070F49AE019
:101E9000899FB0011124695B7E4F4AE050E0C9017F
:101EA0000E94423490E080E008958FEF9FEF089504
:101EB000AAE0B0E0EEE5FFE00C94F1339C01375569
:101EC0002F3F310509F068F4BE016F5F7F4F0E941C
:101ED000440F892B31F489859A852A96E2E00C9487
:101EE0000D3488EC90E0F9CFFF920F931F93CF93BE
:101EF000DF93F42E863070F5623060F528E0829F23
:101F00008001112434E0639FB0011124060F171FD4
:101F1000095E1E4F82E090E0442311F090E080E0E3
:101F2000800F911F0E945234C82FD0E0DC2FCC27A5
:101F300083E090E0FF2011F081E090E0800F911F9E
:101F40000E9452349E01282BC901CDB7DEB7E5E0CF
:101F50000C940A3490E080E0F8CF0F931F93CF9356
:101F6000DF93863030F5653020F5443010F528E0F9
:101F7000629F8001112450E0440F551F040F151F6C
:101F800038E2839F000D111D1124C80187960E941D
:101F90005234C82FD0E0DC2FCC27C80188960E948D
:101FA00052349E01282BC901DF91CF911F910F91CF
:101FB000089590E080E0F8CF20919303309194034E
:101FC000232BC9F4703F39F4603FA9F48091910349
:101FD000909192030895863070F4753038F464302F
:101FE00050F4462F672F0E94AD0F08957D3F31F4C6
:101FF00041E0623040F090E080E008957C3FD9F706
:102000006230C8F740E00E94740F0895CF92DF92CB
:10201000FF920F931F93CF93DF936C0100917B048A
:1020200080911B02082BC7E0D0E010E0FC2EC80115
:102030000C2E02C0959587950A94E2F780FD0CC09E
:102040002197A0F7F12C8F2DDF91CF911F910F9148
:10205000FF90DF90CF900895B6018C2F0E94DC0F87
:102060000E942C08019761F3EECFCF93DF93EC0130
:102070000E940610BE010E94DC0F0E942C08DF9116
:10208000CF9108950F931F93CF938C01FC0143814F
:102090005481618180810E945A05C82F81112AC014
:1020A000F80186819781009791F00E942C08929503
:1020B0009F709630D1F080F4925F9F70923080F4E0
:1020C000803F19F058F4883E58F4C1E009C080817F
:1020D00091810E943510EBCF9A5FEFCF843FA9F337
:1020E0008C2FCF911F910F910895883E70F3813FFF
:1020F000B9F7EBCFC0E0F4CFA5E0B0E0E2E8F0E163
:102100000C94F0339C01FC01868197810097E1F4E7
:1021100085E0DE01119601900D928A95E1F7F901B3
:10212000228189819A81222399F0662389F00E9475
:102130000610182F682F89819A810E94530A69819D
:102140007A81812F0E94DC0F2596E3E00C940C34F9
:102150000E940B0A182FF3CF83E290E00E945234C2
:102160008E3C89F484E290E00E945234843259F427
:1021700085E290E00E94523491E08F3109F090E0C6
:10218000892F8170089580E0FCCFCF9384E090E0A8
:102190000E945234C82F82E290E00E945234982F5D
:1021A0008C2FCF910895AAE0B0E0E9EDF0E10C9416
:1021B000EB33EDE2F3E084E6DF011D928A95E9F767
:1021C000EDEFF3E086E4DF011D928A95E9F78DE2F9
:1021D000C82E83E0D82E7F010BEA11E0F701D182EF
:1021E000C0824AE050E0B801CE0101960E9442341C
:1021F00088E0FE013196D60101900D928A95E1F7B3
:1022000089859A85D70113969C938E931297BAE08D
:10221000CB0ED11CE7E0EE0EF11C065F1F4F0F3016
:10222000F2E01F07D9F62A96E8E00C940734CF9223
:10223000DF92EF92FF926B017C010E94D005B70103
:10224000A60188E090E00E947834FF90EF90DF9044
:10225000CF900895A3E0B0E0E0E3F1E10C94E63321
:10226000E82EB62EF42EA22E9091880290FF2EC05A
:10227000E92FE695AE2FB0E0AC58BE4F8C9180931D
:1022800053029E7F923031F520E5241708F440E593
:102290009E012F5F3F4F6B2D8E2D0E94E6054B81D7
:1022A00069818A810E943E0DE0928902B0928A0281
:1022B000F0928B02AA2051F06091880270918902FD
:1022C00080918A0290918B020E9417112396EDE073
:1022D0000C940234823019F4F0908B02E5CF8630F2
:1022E00019F4E0908902E0CF8930D9F38931E1F621
:1022F000E9518E2F8170782EE695F0E0E756FC4F7D
:10230000E4910E2F10E038E5C32E32E0D32E912C4D
:10231000812CC40124E0969587952A95E1F77110E8
:1023200017C08E0D4F2D90E59F1508F440E59601DE
:102330006B2D0E94E605800E911E23E0C20ED11C7B
:1023400088E8C81682E0D80621F70E94320BACCF8D
:102350002E2D281B822FE6CFE8E8F2E0438121E111
:10236000421B08F440E021E0628181810E942A1131
:102370000895E8E8F2E0438121E1420F08F44FEFCD
:1023800021E0628181810E942A110895E8E8F2E04B
:10239000628121E1621B08F460E021E043818181D8
:1023A0000E942A110895E8E8F2E0628121E1620FBB
:1023B00008F46FEF21E0438181810E942A11089582
:1023C000E8E8F2E0818121E04381628188500E9447
:1023D0002A110895E8E8F2E0818121E043816281D9
:1023E000885F0E942A11089580918C02882319F039
:1023F000815080938C026091880270918902809153
:102400008A0290918B020E941711089580918C028C
:10241000833018F48F5F80938C02609188027091F2
:10242000890280918A0290918B020E94171108956F
:102430009091880290FF2CC0917081112AC0926007
:1024400090938802662351F060918802709189020E
:1024500080918A0290918B020E94171160918802EC
:10246000669570E04BE050E08CE091E00E942134F2
:10247000892BB1F01092540281E08093500220E049
:1024800040918B0260918A02809189020E942A11F8
:102490000895853210F09864D3CF880F982BD0CF51
:1024A00081E0809354020E94FB0490934E0280933B
:1024B0004D02E2CF809188028695815009F484E232
:1024C00061E00E94181208958091880286958F5FBE
:1024D000853208F081E061E00E9418120895909121
:1024E000880290FF08C09695981728F0961718F460
:1024F0000E946412089561E00E9418120895E8E8AD
:10250000F2E083E0808311828FEF828380E5838312
:10251000148260817181828193810E9417110895D4
:102520008091530490915204892B8093AA01809149
:102530001A02882319F10E94FB042091180230919D
:102540001902821B930B8838934110F00E94BA093C
:102550008091AA0190911A02892B8093AA0120E010
:102560008CEA91E0FC013191CF0131112F5FF1E054
:10257000823B9F07B9F721110E94BA0948E050E059
:1025800060E172E08AEA91E00E942E34892BA9F082
:1025900088E0EAEAF1E0A0E1B2E001900D928A95CC
:1025A000E1F7E0915804F0915904309731F002803E
:1025B000F381E02D8AEA91E009950895CF93DF93A6
:1025C000EC01EA85FB85309719F06C857D850995CE
:1025D0008B810E94C5098C810E94CC090E949012B7
:1025E00086E0FE0111928A95E9F7DF91CF91089577
:1025F000CF93DF93EC018D8181FD18C082608D83C4
:10260000809152049B81892B8093520480915304C2
:102610009C81892B809353040E949012E885F98550
:10262000309721F06C857D85CE0109951092550477
:10263000109254048D8180FD03C0CE010E94DE12F1
:10264000DF91CF91089590E080E00E94370590E0FF
:1026500080E00E942105109252040E94901286E0B0
:10266000E7E4F2E0DF011D928A95E9F7109241025A
:1026700010924002109242020E947C0608950E942D
:10268000C70D80937B040E942313089580917B04DF
:10269000982F9670963021F488600E943F13089519
:1026A000877FFBCF21E030E001C0220F8A95EAF757
:1026B000209580917B0482230E943F13089590917E
:1026C0000F028095892380930F02282F277091F4A1
:1026D000282F082E000C330B9217130659F09091F7
:1026E000250292FF07C08595859585950E94521316
:1026F0000E94D3090895CF93C0912502C2FB992768
:1027000090F9981791F080FBC2F9C093250260916F
:10271000240284E090E00E9466346C2F82E290E014
:102720000E94663482E00E945F13CF91089521E0F9
:1027300030E001C0220F8A95EAF780917B04822B5A
:102740000E943F1308959091250292FF10C098E0D7
:10275000899F90011124622B60930F020E949713AE
:102760000E94FB0490930E0280930D0208950E9434
:102770009713089580931B020E94231308951092CB
:102780005304ECEAF1E086E0DF011D928A95E9F757
:102790000E9423130895AAE2B0E0E1EDF3E10C9466
:1027A000F03383E794E02091F100DC012D93CD011B
:1027B000B4E08B379B07B9F780917404833009F438
:1027C00072C0B8F4813009F449C0823009F4B3C052
:1027D0008091E80083FF96C2809173049091740405
:1027E0009A3008F08FC2E92FF0E0EC55FB4C0C94C6
:1027F000A3338A3009F48EC08B3009F471C089305C
:1028000039F780917304813219F7809177049091A0
:102810007804009711F00297D9F68091E800877F3D
:102820008093E8008091E80082FF38C09091F30027
:102830008091F200029731F48091F100813011F023
:10284000863021F48091F100809366048091E80045
:102850008B778093E8000E94C103BACF8091730404
:10286000813A09F0B5CF8091E800877F8093E80036
:102870008091770490917804892B61F468E087E671
:1028800094E070E00E946D048091E8008B77809363
:10289000E8009ECF60E090E080E0F3CF809171048B
:1028A0008111C0CF95CF80917304813A09F090CF08
:1028B0008091770490917804892B09F089CF8091D9
:1028C000E800877F8093E8008091E80080FFFCCFDC
:1028D00080911D018093F1008091E8008E77B9CF3F
:1028E00080917304813209F073CF809177049091C5
:1028F0007804892B09F06CCF8091E800877F809362
:10290000E8000E94C1038091750480931D010E941C
:10291000BF135ECF80917304813209F059CF80914B
:10292000E800877F8093E8000E94C10380917604CD
:10293000809365044DCF80917304813A09F048CFAC
:102940008091E800877F8093E8008091E80080FF15
:10295000FCCF80916504BECF803899F0823809F0B1
:10296000D1C1809177048F70873008F0CBC18093FC
:10297000E9008091EB0085FB882780F91092E9003F
:1029800006C080916F0490917004911182609091C3
:10299000E800977F9093E8008093F1001092F10097
:1029A0008091E8008E77AAC1882309F498C182300B
:1029B00009F0A8C18091750481119BC180917704B1
:1029C0008F702FEF280F263008F09CC18093E9000C
:1029D0002091EB0020FF8DC1933031F48091EB000A
:1029E00080628093EB0085C19091EB0090619093A1
:1029F000EB0021E030E001C0220F8A95EAF7209336
:102A0000EA001092EA008091EB008860EACF811121
:102A100079C1109175041F778091E3008078812B34
:102A20008093E3008091E800877F8093E8000E9414
:102A3000C1038091E80080FFFCCF8091E3008068B3
:102A40008093E30082E0111183E0809371045AC106
:102A50008058823008F056C1209175043091760478
:102A60002C3DE3E03E07A1F583E08A838AE2898377
:102A70004FB7F894DE01139620E03EE051E2E32FD9
:102A8000F0E050935700E49120FF03C0E295EF700F
:102A90003F5FEF708E2F90E0EA30C0F0C7968D93C5
:102AA0009D932F5F243159F74FBF8091E800877FB6
:102AB0008093E8006AE270E0CE0101960E946D0406
:102AC0008091E8008B778093E8001CC1C096E7CF27
:102AD0008091770490917804432F55274330510516
:102AE00009F44AC078F54130510509F485C08BE5F9
:102AF00090E0EEE8F5E04230510509F003C1209185
:102B0000E800277F2093E8002091790430917A042F
:102B10008217930708F49C0140E02115310509F064
:102B200070C041116EC08091E80082FDC9CF8091D4
:102B30007104882329F2853019F28091E80083FF1F
:102B4000F2CFBECF4132510509F447C042325105A0
:102B500009F0D8C08330910508F0D4C0FC01EE0F15
:102B6000FF1FE456FE4F0190F081E02D87569E4FE7
:102B7000DC018C9190E01DC0332721303105E9F054
:102B80002115310579F022303105F9F02330310576
:102B900009F0B8C0EBEFF5E0E4918E2F90E0EBEF99
:102BA000F5E007C0EBE4F6E0E4918E2F90E0EBE473
:102BB000F6E0009709F4A6C0A2CFEBE3F6E0E491BB
:102BC0008E2F90E0EBE3F6E0F4CFE9E1F6E0E4915C
:102BD0008E2F90E0E9E1F6E0ECCF8330910508F02C
:102BE00091C0880F991FFC01EE55FE4F0190F081B6
:102BF000E02D89E090E083CF82E190E0E9EEF5E01E
:102C00007ECF80917104882309F45ACF853009F46E
:102C100057CF8091E80083FD53CF8091E80082FD7B
:102C200082CF8091E80080FF78CF9091F30080916F
:102C3000F2002115310519F08830910550F041E07E
:102C4000089709F040E08091E8008E778093E800D3
:102C500064CF44914093F10031962150310901969F
:102C6000E8CF803809F04EC08091E800877F8093DC
:102C7000E800809172048093F10092CE811142C0ED
:102C8000109175041230F0F58091E800877F8093F1
:102C9000E800109372040E94C103112311F084E034
:102CA00005C08091E30087FDFACF81E08093710435
:102CB00042E061EC81E00E94E00342E261EC84E0EA
:102CC0000E94E00342E261EC82E00E94E00342E203
:102CD00060EC83E00E94E0038091710413C0809156
:102CE0007504813079F481E0933009F080E08093BD
:102CF00070041092E9008091E800877F8093E800DB
:102D00000E94C1038091E80083FF0AC08091E8001F
:102D1000877F8093E8008091EB0080628093EB00D6
:102D2000AA96E3E00C940C340E94BF132FEF84E3C7
:102D30009CE0215080409040E1F700C0000088E115
:102D40009AE00FB6F894A895809360000FBE909318
:102D50006000FFCF882321F00E94C5090E949012D5
:102D60000895882339F090915204982B909352043F
:102D70000E9490120895882321F00E94CC090E949D
:102D800090120895882339F090915304982B9093D2
:102D900053040E94901208958823C9F19CEF980F64
:102DA000913A78F4ECEAF1E09191891303C0DF01E4
:102DB00011971C9291E0E23BF907B1F70E94901243
:102DC000089590E2980F983050F4877091E001C018
:102DD000990F8A95EAF7892F0E94CC09EFCF9BE5DE
:102DE000980F933028F490E080E00E943705089512
:102DF00098E5980F973128F490E080E00E94210533
:102E00000895803F20F00E94A3060E947C0608954A
:102E1000CF93DF93EC010E94CC16CE010E947F0A73
:102E20009E01205E31092830310510F0CD2B29F4A8
:102E30000E94BB16DF91CF9108950E94AA16FACF87
:102E4000CF93C82F8823B1F08CEF8C0F813A00F517
:102E5000ECEAF1E082EB91E0DF012D91C21761F025
:102E60008A179B07D1F76C2F8AEA91E00E94070529
:102E70000E949012CF9108952191C21303C0DF01E7
:102E800011971C928E179F07B9F70E949012EBCFF3
:102E900080E28C0F883068F4C77021E030E001C018
:102EA000220FCA95EAF780915304822B8093530432
:102EB000DFCFEBE5EC0FE33040F4F0E0EA5DFE4FEE
:102EC000808190E00E943705D5CFE8E5EC0FE7312F
:102ED00050F4F0E0EE0FFF1FE75DFE4F808191811F
:102EE0000E942105C7CFC03F28F28C2F0E9468079F
:102EF0000E947C06BFCF1F93CF93DF93182FD0E0A3
:102F0000C0E0893311F4C0E5D0E0812F0E94201782
:102F1000209739F4812F0E94CC16DF91CF911F9119
:102F200008958FE99FE00197F1F700C00000219715
:102F3000EFCFB0E0A0E0EFE9F7E10C94EB336B01E9
:102F4000C42FD22FFC0182818823A9F04093510421
:102F50000E94FB049093500480934F04C77081E05B
:102F600001C0880FCA95EAF70E94C216CDB7DEB736
:102F7000E8E00C94073410915104141337C0809189
:102F80004F04909150040E94E0047C01C6010E940D
:102F9000580FE816F90650F5C0E2CD0F1D17C1F025
:102FA00080E2810F883048F4177081E0012E01C063
:102FB000880F0A94EAF70E94BB16C83048F481E0F3
:102FC0009D2F977001C0880F9A95EAF70E94C2164C
:102FD000802F0E947B17C83048F6D77081E001C06F
:102FE000880FDA95EAF70E94BB16C0CFC77081E060
:102FF00001C0880FCA95EAF7F6CFB0E0A0E0E3E0A1
:10300000F8E10C94EC33E82FF0E0E25FFA4FD49053
:10301000282F26952695269530E0F901E250FB4FA2
:103020000491877010E0082E02C0159507950A9448
:10303000E2F701701127F901E251FB4FE490F12C06
:10304000082E02C0F594E7940A94E2F791E0E92291
:10305000FF24F901E252FB4FC491D0E002C0D595A4
:10306000C7958A95E2F7C170DD270115110519F0A2
:1030700081EE0E942017E114F10419F086EE0E94FF
:1030800020178D2D0E947B17E114F10419F086EEB4
:103090000E94CC160115110519F081EE0E94CC1684
:1030A000CD2B19F08CE20E947B17CDB7DEB7E7E09D
:1030B0000C9408341F93CF93DF93EC011AE08881BE
:1030C000882309F43EC08130C9F599818A81913005
:1030D00029F422960E947B172196F1CF923021F499
:1030E00022960E942017F8CF933021F422960E9456
:1030F000CC16F2CF943011F02196EECF229630E02C
:1031000020E0AE014F5F5F4F8053990B8A309105ED
:1031100050F02150310900F38FE99FE00197F1F75A
:1031200000C00000F6CF129FB001139F700D112454
:103130009C01260F371F8981EA01E3CF0E94FD170A
:10314000CBCFDF91CF911F910895CF93DF93EC0107
:103150000E947F0A9E01205E31092830310510F05F
:10316000209741F40E94C2168C2F0E942017DF91F5
:10317000CF9108950E94B116F7CF0F931F93CF936D
:10318000DF938C01EB010E94A518209741F4C80140
:103190000E940817DF91CF911F910F9108958FE939
:1031A0009FE00197F1F700C000002197EECF68EE95
:1031B0007EEF90E080E00E94843460E082E090E066
:1031C0000E94663460E083E090E00E9466341092D2
:1031D0001B0260E084E090E00E94663464E082E2DA
:1031E00090E00E94663460E085E090E00E946634E2
:1031F00060E086E090E00E9466346FEF87E090E048
:103200000E94663440E050E0BA0188E090E00E94FD
:10321000783460E08DE090E00E94663440E050E059
:10322000BA0188E190E00E94783460E087E190E0A4
:103230000E94663440E050E0BA018CE190E00E94C8
:10324000783470E060E080E290E00E94843440E0F6
:1032500050E0BA0188E190E00E94783480E00E945A
:10326000570E0E94340F40E050E0BA018FE090E02A
:103270000E94783440E050E0BA0183E190E00E947F
:1032800078340895A4E0B0E0E8E4F9E10C94E73381
:103290007C01DC0113964D915C91149711966C9111
:1032A00011978C910E945A058111EDC061E0C70110
:1032B0000E947C108C01F70182818823E1F08091CB
:1032C0005404909155040097B1F00817190799F02C
:1032D000FEE08F9FC0011124FC01EA55FD4F2081C3
:1032E000246020838F559D4FDC010D931C930E9419
:1032F000F81210925204F7018281882309F436C72C
:10330000980122513F452031310508F0A0C68FEFCA
:1033100093E00E9452348111A6C07EEED72ED00ECB
:103320000FE012E0D11036C019821A821B821C8273
:1033300099249A9468012FEFC21AD20AC8010E94F8
:10334000523489831A82882309F48DC0813009F0B0
:103350007FC0580132E0A30EB11CC6010E94523456
:10336000C82E8A83882309F47EC0C5010E94523486
:10337000D82E8FEF8C0D8330D8F4580143E0A40E83
:10338000B11CDB82DD2021F0CE0101960E945A188B
:103390008501D0CF0115F4E01F0709F464C0C8010E
:1033A0000E945234811101C0DA940F5F1F4FBACFCF
:1033B0008BEF8C0D833030F5C8010396DB825C0106
:1033C000DD2031F3580154E0A50EB11C0E945234A7
:1033D0008C838823E9F28B819C818130AFEF9A073F
:1033E00010F0982F8827B6E0CB1631F0E7E0CE1624
:1033F00031F00E94E927CCCF0E94C327C9CF0E9499
:103400005027C6CFF4E0CF12C3CF580124E0A20E5C
:10341000B11CC80103960E945234DD2021F188239B
:1034200011F18150990B989E9001999E300D1124B5
:103430004D2D4150550BCA01820F931F019708F47F
:10344000A7CFAFE9BFE01197F1F700C00000F6CFBA
:10345000CE0101960E945A1856019ACF81E00E942F
:1034600097130E94461380910F02877061F0D70175
:1034700012968C91882339F08091250282FF03C037
:1034800082E00E945F132496ECE00C94033481E008
:103490000E945213E6CF82E0E2CF823009F018C6D4
:1034A00080919B0290919C02892B09F411C62EE019
:1034B0002C9DC0012D9D900D1124FC01EA55FD4F5E
:1034C00020812E7F20838F559D4F0E94F81200C6C9
:1034D0002FEFC216D10409F008F4FAC5D7011296ED
:1034E0008C91882391F0033EBCE51B0709F4EFC0E3
:1034F00008F0DAC0013EFCE51F0709F4E3C081E0F3
:10350000023E2CE5120709F4DAC017FF53C1D701B8
:1035100012968C91882309F46BC00E944D05869504
:1035200081708093B4010E944D0581708093B30136
:1035300080919503813039F48091B401882319F08A
:1035400089E30E947B17809153048093B20110920B
:1035500053041092520480919503823009F4DEC026
:1035600008F0BBC0882309F4CEC0813009F4CFC075
:103570008FE39CE90197F1F700C000005801E8943F
:10358000B7F84CE0C42ED12C5AE0852E912CC50101
:103590000C2C02C0969587950A94E2F78F70909153
:1035A0009503923009F0D5C08A3008F0D0C090E081
:1035B0000996B4010E946D33875A0E947B1794E0EC
:1035C000C91AD108ACEFCA16AFEFDA0601F780913D
:1035D0009503823009F4E3C008F0C5C0882309F4DC
:1035E000CEC0813009F4CFC08091B20180935304E2
:1035F000D70112968C91882309F4C4C51092510406
:103600000330BDE51B0708F01EC10A3FECE51E07AD
:1036100030F4C80182509C45449708F01FC10E94B5
:10362000C510909325028093240202314CE51407C3
:1036300009F420C208F070C109308CE5180709F4BC
:10364000F7C108F03AC10530ACE51A0709F4E4C146
:1036500008F021C10330ECE51E0709F4D5C108F0DC
:10366000D7C180912402816002302CE5120709F451
:1036700050C1609124021091250284E090E00E94E4
:103680006634612F82E290E00E9466340E94BF138C
:10369000EACE902F812F65C5F601858181FF1ECF6F
:1036A000C6010E94DE121ACF053E3CE5130799F0D1
:1036B00080F085E0003B5DE5150709F026CF80939B
:1036C000950302C0109295030E94E90D1ECF82E07F
:1036D000F6CF83E0F4CF84E0F2CF843099F18530E7
:1036E00009F046CF70E060E08BE191E00E94BD18E8
:1036F00070E060E085E290E00E94BD1870E060E05C
:1037000088E290E008C082EE0E94201731CF70E07E
:1037100060E088E193E00E94BD182ACF8091B30158
:10372000811103C083E50E947B1782EE0E9420175F
:10373000EFE3FCE93197F1F700C0000087E50E9454
:103740007B1716CF86EE0E947B1788E1F8CF865054
:1037500034CF96EF980F963020F0805D0E94FD17D1
:103760002ECF895AFBCF843019F1853009F03CCF38
:1037700070E060E088E290E00E94BD1835CF82EEF4
:103780000E94CC1631CF8CE20E947B178091B4014D
:10379000882309F429CF89E30E947B1725CF82EE85
:1037A0000E94CC168091B30181111ECF83E5F4CF26
:1037B00088E2F2CF033FBCE51B0769F1B0F4083D96
:1037C000FCE51F0711F1093D2CE51207B1F1073D9A
:1037D0003CE5130709F00CCF06E221EE41EE67ED60
:1037E0007CE5C7010E9499173ECE053F4CE51407C2
:1037F000F1F0B8F0063F8CE5180709F0F9CE07E2C2
:1038000025EE46EE66EF7CE5ECCF07E225EE45EED1
:1038100068ED7CE5E6CF06E221EE40EE63EF7CE565
:10382000E0CF07E225EE44EE64EF7CE5DACF06E276
:1038300021EE42EE65EF7CE5D4CF08E221E045EED3
:1038400069ED7CE5CECF053AFDE51F0709F4E7CE2B
:10385000E0F401363DE5130709F4E1CE06314CE50D
:10386000140709F0A6C4809153048A7A91E009F400
:1038700090E09093B50169E2811165E38AEA91E0F5
:103880000E9407050E949012EECDC8018D5A9D45F9
:10389000039720F7C4CE80912402806207303CE574
:1038A0001307B9F180912402806108304CE51407B8
:1038B00080F18091240280642CC00D305CE51507F6
:1038C00009F4C0C090F4809124028E7F0B309CE5F7
:1038D0001907F9F0809124028C600C30ACE51A07CE
:1038E000C0F0809124028D7F14C00F30BCE51B070F
:1038F00009F4B8C008F4AAC00031FCE51F0709F4B8
:10390000B5C0809124028F7B01312CE5120709F0AC
:10391000B0CE80932402ADCE0F3F3CE5130709F4EF
:10392000B3C0A8F50A3F5CE5150709F479C0C0F4F7
:1039300004319CE5190709F4B5C008F4A1C00531AC
:10394000BCE51B0709F095CE8091240282FB9927E4
:1039500090F921E0922790FB82F990FB83F9D9CF6F
:103960000C3FECE51E0709F475C008F45DC00D3F7F
:103970002CE5120709F472C08091250283600E3F86
:103980003CE5130709F075CE8093250272CE01360F
:103990004DE5140709F491C090F401308DE5180746
:1039A00009F489C008F474C060E00230ADE51A077C
:1039B00009F05FCE8EE090E00E9466345ACE0D3A58
:1039C000BDE51B07E9F060F490912402892F8E7FFA
:1039D00090FF8160053AFDE51F0709F49ACF49CEB3
:1039E0000E3A2DE5120751F10F3A3DE5130709F0A4
:1039F00040CE90912502892F877F93FF8860C4CFA6
:103A0000809125028860C0CF80912402826081CF9E
:103A10008091240284607DCF80912402886079CFD8
:103A2000809125028160B0CF809125028260ACCF69
:103A30000E94BF138091240280686BCF8091250281
:103A4000877FA2CF809124028B7F63CF8091240255
:103A5000877F5FCF809125028E7F96CF8091250250
:103A60008D7F92CF809124028F7E53CF809124024C
:103A70008F7D4FCF0E94BF13809124028F7749CF53
:103A800080912402837F45CF809125028C7F7CCF5B
:103A900080912502982F909591708E7F892B90FBB5
:103AA00081F972CF0E94BF1390912402892F97FB56
:103AB00087F980582ECF61E07DCF90912402892F25
:103AC0008F7E94FF806125CF85E365C381608093FD
:103AD000880261E086950E941812C5CC4AE552E141
:103AE00064E672E10E94C905BECC44E652E16AE593
:103AF00072E1F8CF4AEE51E160EE71E1F3CF46ECAE
:103B000051E163ED71E1EECF4CEA51E169EB71E116
:103B1000E9CF49EB51E16CEA71E1E4CF46E052E1D3
:103B200064EF71E1DFCF61E081E0D5CF65E082E055
:103B30000E946F1298CC68E086E0FACF64E18FE0D3
:103B4000F7CF67E185E1F4CF62E289E1F1CF61E08F
:103B500083E2C1CF0E94BF13AFEFB4E3ECE0A1500A
:103B6000B040E040E1F700C000000E94CF04809127
:103B7000250282FB882780F991E089270E947B1328
:103B8000F701868197810097C1F10E942C088C0172
:103B9000F701C280B580B2943FE0B32280910F025A
:103BA0008770C1F0AC2CCC20B1F0812F807F8034A5
:103BB00021F080E2800F883068F08091250282FF3A
:103BC00009C082E00E945F1380910F028770AA24CF
:103BD000A3948111A12C912E92942FE09222FBE0CC
:103BE000F91508F484C0E92DF0E0E255FB4C0C9483
:103BF000A33381E0C3CF80E0C1CF828100811181F6
:103C0000882369F0C8010E940610D82E682FC801C9
:103C10000E94530AB8018D2D0E94DC0FB6CFC80157
:103C20000E940B0AD82EF6CF212F2F70D22E107F94
:103C300019F0D29490EFD922CC20B9F0DD2069F0B0
:103C400080E2800F883010F0011109C08091530488
:103C5000D82AD09253040E949012802F46C080919F
:103C60005204D82AD0925204F6CF802F0E94CC164C
:103C7000DD20E9F180E2800F883010F0011104C0EE
:103C80008D2D0E94CC0903C08D2D0E94C5090E9474
:103C900090122DC0312F3F70D32E107F103219F0AB
:103CA000D29480EFD822002381F0013009F495C02E
:103CB000CC2009F49EC0BB2009F46BC0F7018581BC
:103CC00080FFCBCF8F70858364C08091250282FDF9
:103CD00039C0CC2089F1DD2039F080915304D82AF5
:103CE000D09253040E94901280E00E942017292D48
:103CF0002850330B2430310510F40E944D05AA20C2
:103D0000B1F080910F0280FD12C0D70112961C9273
:103D10008595859585950E949713C7010E94421944
:103D200080910F028595859585950E94521360E0DC
:103D3000C7010E947C10A7CB80E00E94CC16DD203A
:103D4000B1F29ECFCC2049F1B11004C080911A028B
:103D50008D2920C041E0B41210C082FFC8CF8091ED
:103D60001A02D82AD81619F20E94FB04909319025D
:103D700080931802D0921A02BACF55E0B512E6CF5E
:103D80000E94BA099091B6018D2D892B89138093D9
:103D9000B6018D2D0E94C216AACFB11003C00E9499
:103DA000BA0912C081E0B81213C0809153048D216A
:103DB00009F49DCF0E94BA099091B6018D2D80958E
:103DC000892389138093B6018D2D0E94BB168FCF56
:103DD00095E0B91609F48BCFE2CFCC2029F0A5E00D
:103DE000AB1508F484CFD5CFB4E0BB1508F47FCF72
:103DF000EBCFBB2049F3093349F4FFEF27EE33E063
:103E0000F15020403040E1F700C00000802F0E94B8
:103E1000CC166DCF812F86958695837061F08130A9
:103E200009F065CFC8019370C11002C090E080E036
:103E30000E9421055CCFC8019370C11002C090E0C0
:103E400080E00E94370553CF802FCC2029F00E94BC
:103E500068070E947C064BCF0E94A306FACF812FF1
:103E6000837089F5C11043CF402F42954695477026
:103E7000440F440F802F8F70042E01C0880F0A94C6
:103E8000EAF7202F207104FF07C02FE030E001C0C7
:103E9000220F4A95EAF72095169516951370123061
:103EA00069F050F430911B02113029F0822B8323EA
:103EB0000E94BA131CCF832B822BFACF282B809120
:103EC0001B028227F5CF8695CC2011F0812F8170BF
:103ED000882309F40CCF402F429546954770440F34
:103EE000440F802F8F70042E01C0880F0A94EAF7C8
:103EF000202F207104FF07C02FE030E001C0220F07
:103F00004A95EAF72095169516951370123069F0C8
:103F100050F430917B04113029F0822B83230E94CE
:103F20003F13E5CE832B822BFACF282B80917B0485
:103F30008227F5CF1F70CC2029F0812F0E94971384
:103F4000802F28CF802F0E94BB16812F0E945213F2
:103F5000CECE023F89F160F4003FB9F0013F81F01D
:103F6000CC2009F464C0B11078CE812F8F7128C0A5
:103F7000033F49F1043FA1F78091250282FD2FC044
:103F8000812F8F71CC2011F31BC0CC2081F044E035
:103F90004B1508F4ACCE1F7181E090E0012E01C0FA
:103FA000880F0A94EAF790917B048927B8CF55E0EF
:103FB0005B1508F49CCEEFCF812F8F71C110C6CF57
:103FC0000E94971394CE80E0CC2009F4A8CF1F71F3
:103FD00081E0012E01C0880F0A94EAF7A0CFCC201F
:103FE000C9F080910F028770843041F40E94D30998
:103FF000812F8F710E945213A12C79CE84E08B15F2
:10400000D8F31F71812F0E94971363E0812F0E94C4
:10401000A313F2CF94E09B1530F40E94D30964E01F
:10402000812F8F71F4CF81E00E945F13E5CFBB2019
:1040300059F0093309F0EACEAFEFB7EEE3E0A15053
:10404000B040E040E1F7E0CE812F8F717FCF0031AB
:10405000BFE51B0709F402CA0131EFE51E0709F4A9
:104060001ACA6801E7E5DE1A811132CAFFEFCF16DE
:10407000D10411F008F032CA67E972E08C2D0E9479
:10408000440F892B29F58EE08C9DF0018D9DF00D5C
:104090001124EF55FD4F8281813009F0FEC98091D6
:1040A000970290919802892B99F0809199029091B2
:1040B0009A02892B69F080919B0290919C02209139
:1040C0009D0230919E02822B932B892B09F4EFC91C
:1040D0005801BB243EE0039FF0011124AF014F556E
:1040E0005D4F6A01D70112968C91EA55FD4F908180
:1040F00080FB90F99083882309F4CECA0E94FB04C8
:104100009093300280932F02D60112968C911297D1
:104110008F5F12968C931297809152049091530462
:10412000892B13968C93139780911A0214968C9373
:1041300014971696ED91FC911797309729F01C96DD
:104140006D917C91C60109958EE08A9DF0018B9D51
:10415000F00D1124EF55FD4F858181FF9ACA90E043
:1041600080E09093540480935504B8C90031FFE572
:104170001F0709F48CC901312FE5120709F071CF2F
:1041800082E086C90631BCE51B0789F58091B5013F
:1041900081119ACC89E2ECEAF1E022EB31E09191D5
:1041A000891303C0DF0111971C922E173F07B9F73F
:1041B00069CB0A35EDE51E0709F41BCD68F401153E
:1041C0002CE5120709F4C6CC0E3D1C4509F0D8CCED
:1041D0000E94D7180E9494160C354DE5140709F477
:1041E000C6CC08F408CD073A1D45A1F3C9CC80918F
:1041F000530482720C3C9CE5190709F48FCC08F03B
:1042000063C0063CBCE51B0709F474CCC8F5033C4D
:10421000FCE51F0709F462CC20F5023C3CE51307DE
:1042200009F0AECC8091880280FF50CC8E7F8093C5
:104230008802609188027091890280918A0290912F
:104240008B020E941711109254025FEF80E792E0F8
:10425000515080409040E1F700C000000E94320BB6
:1042600002C9043C4CE5140709F43FCC053C5CE56D
:10427000150709F085CC40EE51E16AEE71E132CCD0
:10428000093C9CE5190709F43FCC78F4073CBCE5F0
:104290001B0709F434CC43ED51E166EC71E1083CB5
:1042A000ECE51E0709F41ECC6BCC0A3CFCE51F07AD
:1042B00009F42FCC44EF51E166E072E10B3C2CE5B0
:1042C000120709F40FCC5CCC013D3CE5130709F45F
:1042D00035CCA0F40E3C5CE5150709F427CC08F4B6
:1042E00022CC0F3C9CE5190709F425CC6EE089E04F
:1042F000003DACE51A0709F41BCC42CC043DBCE5FB
:104300001B0709F421CC68F4023DFCE51F0709F402
:1043100018CC61E088E1033D2CE5120709F4DBCB02
:104320002FCC053D3CE5130709F411CC0D351007E2
:1043300009F499C825CCB0E0A0E0E1EAF1E20C94E0
:10434000EB338091C801807F31F48091C501C09129
:104350000C02811107C0CDB7DEB7E8E00C9407343A
:104360002196C7708091CB018C17A9F3F090C301FF
:10437000E090C401C090C601D090C701A6016E2D87
:104380008F2D0E945A05D0E08111EACF8E0183E083
:10439000000F111F8A95E1F7F801E453FE4F818168
:1043A0008E11DECF80818F11DBCF82818111D8CF3A
:1043B000E380F480EC18FD0860E083EC91E00E945B
:1043C0007C100E94580FE816F90650F68091C8013B
:1043D0008F7080618093C801F801EF52FE4F808199
:1043E0008F708061808383EC91E00E9442190E946B
:1043F000DA09B1CFA5E1B0E0E0E0F2E20C94E333FA
:104400008C0185E0F801DE01519601900D928A95AC
:10441000E1F7F801E28043ECA42E41E0B42E809055
:10442000C6019090C701A4016091C4018091C301AD
:104430000E945A05682E8111A1C1F801C380D48061
:10444000F090C501C601881999094C01FF2009F4B3
:1044500047C14080518060E0C5010E947C100E94ED
:10446000580F7090C8018816990608F0E1C0409175
:10447000C6015091C701B090C301A090C401872D1F
:10448000807F6A2D09F080C08B2D0E945A05FE2C7A
:10449000811124C0F80181818A1120C080818B1193
:1044A0001DC02091C9013091CA01868197812817CA
:1044B0003907A1F4E11012C0872D8F7080618093BD
:1044C000C80183EC91E00E9442198091C801F80173
:1044D00085838F2D6596E0E10C94FF33A601652D51
:1044E000842D0E945A05811122C081E08E25F82F6B
:1044F000F170DF2E80FF3EC080910C022091CB0135
:10450000821317C0498A5A8A89899A890E9435106C
:10451000292F22952F70223008F1243030F59F701A
:1045200009F1F8019581907FE9F4F62CD2CF80E073
:10453000DECF90E0FC0133E0EE0FFF1F3A95E1F78C
:10454000E453FE4F3181531206C03081431203C041
:104550003281E3120FC001968770D2CF9F7011F0A5
:10456000882319F3805E883000F3C8010E94421945
:104570006D2CDBCFEE2009F4ACCF8091C8018160B7
:104580008093C801F12CA5CF8B2D0E945A05811173
:104590001FC0F80181818A111BC080818B1118C056
:1045A0002091C9013091CA01868197812817390766
:1045B00079F4E1100DC07582C8010E94421988E0AB
:1045C000F801A3ECB1E001900D928A95E1F781CF5B
:1045D000C8010E944210882339F1EE2029F1809110
:1045E000C8018032A0F02091C3013091C4013A8704
:1045F00029871B86DD86CC868E878091C9019091A4
:10460000CA01988B8F87CE0109960E94421988E0D3
:10461000F801A3ECB1E001900D928A95E1F70E94B8
:104620009B21FF24F39455CFC8010E944219F9CF72
:10463000872D807F51F483EC91E00E94421988E03D
:10464000F50111928A95E9F79DCF9090C301809072
:10465000C4014091C6015091C701682D892D0E9467
:104660005A0581111CC0F8018181881118C0808110
:10467000891115C02091C9013091CA0186819781A5
:104680002817390761F4E1100AC07582C8010E9439
:10469000421988E0F50111928A95E9F71ACFC8010D
:1046A0000E944210882309F4BFCFEE2009F4BCCF4A
:1046B0008091C801803208F4AACF2091C3013091C3
:1046C000C4013A8329831B82DD82CC828E83809150
:1046D000C9019091CA0198878F83CE01019695CF29
:1046E00060E083EC91E00E947C100E94580F8816D5
:1046F000990678F6FE2CEE2009F496CFE090C301DF
:10470000D090C4014091C6015091C7016D2D8E2DEE
:104710000E945A05811124C0F80181818D1120C0A9
:1047200080818E111DC02091C9013091CA018681FE
:10473000978128173907A1F49091C80190FD3FCFC8
:10474000907F09F43CCF8091C8018583903F09F4A4
:1047500033CF982F907F905F8F70892B85832CCFDC
:10476000C8010E944210811152CF8091C80181601E
:104770008093C801C8010E944219ABCEEE2009F413
:1047800053CFC8010E944210F82E882309F44CCF61
:1047900088E0F801A3ECB1E001900D928A95E1F771
:1047A0008091C3019091C4010E9435100E949B2109
:1047B00090CEA0E1B0E0EFEDF3E20C94F133298765
:1047C0003A874B875C876D877E878F87988BCE0172
:1047D00009960E94FA2181112FC088E0FE013996C6
:1047E000DE01119601900D928A95E1F74C855D8569
:1047F0006A8589850E945A0581111EC0A091CB014E
:10480000B0E0CD0101968770992720910C022817FE
:104810001906E1F093E0AA0FBB1F9A95E1F7A453A4
:10482000BE4F98E0FE01319601900D929A95E1F706
:104830008093CB010E94DA0980910C029091CB0108
:10484000891312C06096E2E00C940D340E94BF13ED
:104850001092CB0110920C0288E0E3ECF1E0DF0152
:104860001D928A95E9F7E8CFB8E08B9FC00111242B
:1048700084539E4F0E94FA21882321F380910C02D9
:1048800090E001968770992780930C02D5CFEF9224
:10489000FF920F931F93CF93DF9380919C03882304
:1048A00061F0C0919B038CE0F82E80919C03C817A7
:1048B00048F010929C0310929B03CDB7DEB7E6E060
:1048C0000C940934EE24E394EC0EE0929B030C2F3D
:1048D00010E0CF9DE0011124C356DC4F4B815C8179
:1048E000698188810E945A0581111DC08E819F8136
:1048F000892B21F488859985019651F42881398185
:104900004A815B816C817D818E819F810E94D92348
:10491000F09EF001F19EF00D1124E356FC4F14823D
:10492000138210925204CE2DC0CF10924E041092DA
:104930004D0410921C0180914C0480934B040E9402
:1049400093050E9447240895B0E0A0E0EAEAF4E26B
:104950000C94E233C0914B0497E0892E01E010E003
:104960002CE0322E3EEF932E4424439480914C044D
:104970008C1309C00E9447240E949305CDB7DEB76F
:10498000E1E10C94FE33D0E0FE01EE0FFF1FED5B82
:10499000FB4F80819181889ED001899EB00D1124AA
:1049A000A350BC4F14962C911497211158C05090CD
:1049B0009C03EDE9F3E030E020E0712C5D0125156A
:1049C00008F04BC0E284F384D501CD90DC906FEF0A
:1049D0007FEF612C462D50E0DA01AA0FBB1FAC0D12
:1049E000BD1D0D90BC91A02D109731F0EA16FB066D
:1049F00009F4BA016394EECF6F3F7607A9F1D801AD
:104A000002C0AA0FBB1F6A95E2F77A2AB801062CEA
:104A100002C0660F771F0A94E2F7AB0141505109BB
:104A200074161506F9F4329EF001339EF00D112430
:104A3000E356FC4F889ED001899EB00D1124A350EF
:104A4000BC4F12962D913C91139737832683908209
:104A500091829187808715964C920E9465052196D8
:104A6000C37084CF148213822F5F3F4F3C96A7CF31
:104A7000A9E1B0E0EEE3F5E20C94E133498B5A8B07
:104A80006B8B7C8B8D8B6111109252041D861E8660
:104A90001F86188A85E0FE017196DE011996019045
:104AA0000D928A95E1F78091250282FF1CC00E9439
:104AB000FB0420910D0230910E02821B930B88386B
:104AC000934120F080910F0282FFE6C10E94FB0417
:104AD0002091180230911902821B930B8838934160
:104AE00010F00E94BA094C855D856A8589850E940F
:104AF0005A05811111C061E0CE0109960E947C1017
:104B00006C018B8547EFC4164CE5D40681F48823ED
:104B100021F181E080931C0129853A854B855C85D4
:104B20006D857E858F8598890E94D923C3C068EFE3
:104B3000C6166CE5D60629F4882379F00E949524E0
:104B4000EBCF79EFC7167CE5D70639F4882329F037
:104B500080911C018111F2CFDCCF0DEF13E0E12C2D
:104B6000B12CA12C88248394912C2EEF522E442416
:104B70004394F8014081518166246A94762C20E0A8
:104B8000822F90E0FC01EE0FFF1FE40FF51F608104
:104B900071816115710531F0C616D70609F43C0123
:104BA0002F5FEECFF12CFFEF6F167F0609F444C0A4
:104BB000F8014481F0901C018F2D411180E0F82F05
:104BC000F170FF2EF801258086819B85992309F4D9
:104BD000F2C0FF2009F4EFC0211014C0A401062C7C
:104BE00001C0440F0A94EAF7842B868380919903CD
:104BF00090919A03C29730F462E370E070939A0345
:104C000060939903C40102C0880F991F2A95E2F7A7
:104C10000197F80126812817190671F480914D0437
:104C200090914E04009709F449C00E94E004C39794
:104C300008F444C0F8014482EF28FFEFAF1ABF0A1E
:104C4000095F1F4F2AE0A216B10409F092CF8B85AD
:104C5000882309F40CC1EE2009F409C10E94FB0469
:104C600090934E0480934D0480919C03883010F5FE
:104C700091E0980F90939C0398E0FE013996DE0135
:104C8000119601900D929A95E1F73CE0839FC00147
:104C9000112483569C4F28E0FE013196DC010190DF
:104CA0000D922A95E1F72FEF3FEFFC013187208726
:104CB000D386C2866996E2E10C94FD3380914B0461
:104CC00050914C04982FF0E0E0E0851314C09093CD
:104CD0004B04E017F10709F4AFCF90E0FC01EE0FB1
:104CE000FF1FED5BFB4FB182A08201968370992775
:104CF00080934C04A1CF282E312CF101EE0FFF1F21
:104D0000ED5BFB4F20813181F7E0F29FD001F39FF3
:104D1000B00D1124A350BC4F2D913C911197398FA8
:104D2000288F40E020E030E0E32FF0E0EE0FFF1F9F
:104D3000688D798DE60FF71F6080718061147104B2
:104D4000E1F0F8010190F081E02DFF8BEE8B20E087
:104D500005C06616770609F44F2D2F5FE22FF0E0AD
:104D6000EE0FFF1F6E897F89E60FF71F608171814B
:104D70006115710571F73F5FD7CF4423C9F0F80182
:104D8000231708F0FD0144820E171F0721F49093AA
:104D90004B04F42E51CF981305C0AE17BF0711F482
:104DA0009F5F937091012F5F3F4F822F83708DCF54
:104DB000F0E0E0E0F7CF90E0211020C0B40102C0A5
:104DC000660F771F2A95E2F79B0121503109821760
:104DD000930731F4442309F448C0C5010E946505D6
:104DE000C401062C01C0880F0A94EAF7982F909509
:104DF000F801868189238683F22C1ECF9C01062C24
:104E000002C0359527950A94E2F7A901417055270C
:104E1000BC016150710986239723892B11F5452B1D
:104E200001F1F80182819381892BC1F01B821C82E0
:104E30001D821E8259825A820E94FB048160582F73
:104E40009D838C83F801828193818F839887298148
:104E50003A814B816D817E810E94D923F8011582B0
:104E6000BFCFF22FF1702F2EBBCF2F2CB9CF909147
:104E70004B0480914C04981731F00E94A424EE203A
:104E800009F44ACE17CF0E94472410924E04109284
:104E90004D040E949305F3CF82E00E945F1316CE6B
:104EA000A5E0B0E0E6E5F7E20C94F13390939203CD
:104EB00080939103811520E2920730F40E94081735
:104EC0002596E2E00C940D3480EF89838A831B825F
:104ED0000E94FB048160782F9D838C8349815A81D5
:104EE0006B818D810E943825EBCF0F931F93CF9359
:104EF000DF938C01EB0167E972E08C2F0E94440F75
:104F0000892B71F4DD27C357DD4F8881F8011282A8
:104F100018828330F1F048F4813059F0823081F00A
:104F2000DF91CF911F910F9108958430B9F08530B2
:104F3000B9F78091970290919802009789F306C083
:104F40008091990290919A02009799F30E945027BC
:104F5000E7CF80919B0290919C02F6CF80919D02B9
:104F600090919E02009791F72091970230919802BC
:104F70008091990290919A0221153105F1F20097E2
:104F800029F7C901E3CFA5E0B0E0E9ECF7E20C9422
:104F9000F1339093920380939103811520E292075D
:104FA00030F40E94A5182596E2E00C940D3480EFB1
:104FB00089838A8381E08B830E94FB048160782F40
:104FC0009D838C8349815A816B818D810E94382514
:104FD000EACFCF93DF93EC010E94C327CE010E945A
:104FE0005027DF91CF9108950F931F93CF93DF93B5
:104FF0008C01862F67E972E00E94440F892BB1F47F
:10500000C0919702D0919802209781F0F801828197
:10501000833051F4CE010E94E927CE010E94E92796
:10502000CE010E94E92702C08430D0F7DF91CF91F2
:105030001F910F9108950F931F93CF93DF938C01CE
:10504000EB0167E972E08C2F0E94440F892B09F075
:105050005CC0FE01FF27D80112968C911297E3578E
:10506000FD4F8130B9F415969C9192FF02C0808368
:105070000AC090FFFCCF82E08083809199029091DA
:105080009A020097B9F48091970290919802009744
:10509000E1F110C08230B9F515968C9182FD28C0DF
:1050A00080FD0BC083E0808380919B0290919C02E5
:1050B000009701F10E94C32728C084E0808380917B
:1050C0009D0290919E020097A9F78091970290917E
:1050D00098020097F9F00E94E92780919902909137
:1050E0009A02009739F78091970290919802E2CF47
:1050F00085E080838091970290919802009729F033
:105100000E94E927F0CF86E08083DF91CF911F9145
:105110000F9108958091990290919A02B8CFA5E0DD
:10512000B0E0E5E9F8E20C94E8338E010F5F1F4F21
:1051300085E0F80111928A95E9F787E5C82E81E0AC
:10514000D82EF12CE12CAA24A394B12CF601819144
:105150006F018F3F09F443C0F894E82FE295EF7098
:10516000F0E021A18F70A50102C0440F551F8A9560
:10517000E2F7CA01922F982B91A392A180958923DF
:1051800082A3789400C0ECE5F1E0912C31E021910C
:105190002F3F09F465C0A22FA295AF70B0E09096A2
:1051A0008C9190E02F7002C0959587952A95E2F733
:1051B00080FD56C0832F982A330F51E0E036F50763
:1051C00031F7F601319780818F3F11F00E94D207AD
:1051D00080EA8A95F1F7F801EE0DFF1D9082EFEF5E
:1051E000EE1AFE0AF5E0EF16F10409F0AFCF45E044
:1051F00050E0B8018FE192E00E942E34892B91F1AA
:1052000085E0F801AFE1B2E001900D928A95E1F7F7
:1052100081E080931E020E94FB0490931D02809304
:105220001C0280911C0290911D020E94E0040597CF
:10523000E8F045E050E06FE172E08BE392E00E941D
:105240002E34892BC1F085E0EFE1F2E0ABE3B2E070
:1052500001900D928A95E1F781E010921E0207C03D
:1052600080E0A9CF80911E028111DBCF80E02596DE
:10527000EBE00C94043480E0F0CF90E080E00E94FA
:105280006034883E9E4F19F40E94AC10089580E06F
:1052900008951F920F920FB60F9211242F933F93F0
:1052A0004F935F936F937F938F939F93AF93BF932E
:1052B000CF93DF93EF93FF93D091E900DF7080915C
:1052C000EC00C82FC17080FDC0E81092E900809109
:1052D000F000877F8093F00078940E94CB131092A7
:1052E000E9008091F00088608093F000CD2BCF70B2
:1052F000C093E900FF91EF91DF91CF91BF91AF9102
:105300009F918F917F916F915F914F913F912F91DD
:105310000F900FBE0F901F9018951F920F920FB60F
:105320000F9211242F933F934F935F936F937F932B
:105330008F939F93AF93BF93EF93FF938091E1007F
:1053400082FF09C08091E20082FF05C08091E100E8
:105350008B7F8093E1008091DA0080FF24C08091F0
:10536000D80080FF20C08091DA008E7F8093DA0021
:105370008091D90080FF9DC080E189BD82E189BD17
:1053800009B400FEFDCF81E0809371048091640434
:10539000811109C00E9447030E9412048091E2001B
:1053A00084608093E2008091E10080FF17C08091CB
:1053B000E20080FF13C08091E2008E7F8093E200C4
:1053C0008091E20080618093E2008091D800806249
:1053D0008093D80019BC85E0809371048091E1002E
:1053E00084FF2BC08091E20084FF27C080E189BD4B
:1053F00082E189BD89B5982F917080FFFBCF8091A4
:10540000D8008F7D8093D8008091E1008F7E8093BB
:10541000E1008091E2008F7E8093E2008091E200C3
:1054200081608093E20080917204882309F447C070
:1054300084E080937104809171048091E10083FF86
:1054400027C08091E20083FF23C08091E100877F25
:105450008093E10082E08093710410927204809145
:10546000E1008E7F8093E1008091E2008E7F809347
:10547000E2008091E20080618093E20042E060E01F
:1054800080E00E94E0038091F00088608093F0004B
:10549000FF91EF91BF91AF919F918F917F916F910C
:1054A0005F914F913F912F910F900FBE0F901F90E2
:1054B000189519BC109271041092640474CF8091F5
:1054C000E30087FD93E090937104B5CF78941F9229
:1054D0001FB61F9211248F939F93AF93BF93809118
:1054E0005D0490915E04A0915F04B0916004019608
:1054F000A11DB11D80935D0490935E04A0935F0491
:10550000B0936004BF91AF919F918F911F901FBE88
:105510001F9018951F921FB61F9211248F939F936F
:10552000AF93BF9380915C04811113C080915D049F
:1055300090915E04A0915F04B09160044196A11D1A
:10554000B11D80935D0490935E04A0935F04B093BB
:105550006004BF91AF919F918F911F901FBE1F90CC
:105560001895CDB7DEB7C854D1090FB6F894DEBF91
:105570000FBECDBF85B7806885BF85B7806885BF02
:1055800084B7877F84BF0FB6F894A8958091600098
:10559000886180936000109260000FBE80E890E008
:1055A0000FB6F89480936100909361000FBE80ED78
:1055B00097E09093A9018093A8010E94A4050E94FE
:1055C000D3100E9447030E9412048091E20084607D
:1055D0008093E2007894809171048823A1F0109167
:1055E000E9001F709091EC00892F817090FD80E898
:1055F000182B1092E9008091E80083FD0E94CB13E4
:105600001F701093E90082E084BD93E095BD9AEF8E
:1056100097BD80936E000E94AC10811102C00E9461
:10562000340F07E511E0BCE5EB2EB1E0FB2ED8010D
:105630008D918D018F3F11F00E94D207E016F10687
:10564000B1F781E90E94D20780E90E94D20784E97C
:105650000E94D20782E30E94D20785E0EBE3F2E0EA
:10566000DF01282F1D922A95E9F7EFE1F2E0DF0133
:105670001D928A95E9F70E943D29811102C00E947E
:10568000D71882E090E00E945234809329020E9451
:10569000C51090932502809324020E948F28BFEFAB
:1056A000E6E7F1E0B150E040F040E1F700C0000073
:1056B0000E948F2880913B0280FF08C06FEF7FEF30
:1056C00090E080E00E9484340E94CF0483E090E068
:1056D0000E9452340E94BA1380917B040E94C70D2D
:1056E0008CE090E00E94523490E0B0E0A0E0809323
:1056F000950390939603A0939703B093980380919A
:105700002602811133C00E943D29811104C00E94EC
:10571000D7180E947F1288E090E00E945A3460936C
:1057200088027093890280938A0290938B026E7F25
:1057300071F40E947F1288E090E00E945A346093D6
:1057400088027093890280938A0290938B020E9450
:10575000D005109254028091880280FF04C060E05E
:1057600086950E94181281E08093260282E0809341
:105770003502A2E7AA2EA1E0BA2E40E751E08A0145
:10578000950161E070E0D9018D919D01E82FE295CE
:10579000EF70F0E0D1A08F707B0101C0EE0C8A9514
:1057A000EAF79E2D90959D2191A382A18E2982A337
:1057B000F80181918F01E82FE295EF70F0E0D1A020
:1057C0008F707B0101C0EE0C8A95EAF79E2D9095B3
:1057D0009D2191A382A18E2982A3A457B14099F65D
:1057E0008FE891E00197F1F700C0000010913502B9
:1057F00066E372E0FB018E2F861B811708F471C0EF
:1058000080E091E09093590480935804E8E1EE2EF3
:10581000F12C8BE392E0F5E0DF2ED80E809171043D
:1058200070E4C72E00E112E1853009F4B5C00E9492
:105830008F285AE2852E52E0952E6BE3A62E62E069
:10584000B62E2FE232E0D501F40191918D912E1701
:105850003F0709F4ABC09817C1F310E0F5010191BF
:105860005F01D4018D914D018017A1F1682E602652
:10587000C12C77247394862D872121F12596CFAEF4
:10588000259726961FAF269791E0802F872109F450
:1058900090E027969FAF27970E94FB048160782FA6
:1058A00029969FAF8EAF299725964FAD25972696BF
:1058B0005FAD269727966FAD279729968FAD2997CD
:1058C0000E943825C394770CB4E0CB12D4CFF401F6
:1058D000319700831F5F153009F0C0CF0E94EF049D
:1058E00091C0D5012D915D01822F82958F7090E03E
:1058F000DC0190968C9190E02F7002C09595879571
:105900002A95E2F78170DA019D91AD01292F229548
:105910002F7030E0D90190962C9130E09F7002C03A
:10592000359527959A95E2F790E020FD92E0892B36
:10593000819361CF80917104843009F110925C04ED
:105940000FB6F894A895E09260000FBEC092600078
:1059500083B7817F846083BF83B7816083BF78947E
:10596000889583B78E7F83BF0FB6F894A8958091F2
:105970006000886180936000109260000FBE80918B
:105980007004882349F00E948F28EBE3F2E08191B4
:10599000811166C6DE12FBCF80917104853009F457
:1059A000C9CF0E94BF130E944D0541CF981355CF18
:1059B0000E94FB048C018091270290912802081715
:1059C000190701F18FEF8FAF21968FAF21972296A4
:1059D0001FAE22970E94FB048160782F24969FAF10
:1059E0008EAF24974FAD21965FAD219722966FAD74
:1059F000229724968FAD24970E9438251093280271
:105A000000932702009154041091550401151105CB
:105A1000E9F080912F02909130020E94E0045C0135
:105A2000C8010E94580F8A159B0580F48091540488
:105A3000EEE08E9FC0011124FC01EA55FD4F20814C
:105A400022FD04C08F559D4F0E94F81280911C01C9
:105A5000882301F180914D0490914E040097D1F07C
:105A60000E94E0042091990330919A032817390786
:105A700088F490914B0480914C04981709F454C019
:105A80000E94A42410929A031092990310924E043B
:105A900010924D04809154028823D1F180915302D9
:105AA000E0918802E695E81BE0934F02823009F00E
:105AB00044C0F0E0E356FE4FE4910E2F10E043EBBC
:105AC000A42E4DE0B42E80915002882361F01092F4
:105AD00050020E94FB0490934E0280934D0210925C
